:07014A007FC81201517FC8BC
:08015100EF6004001F80F92299
:1000E800AD07AC06ED4C601212014A12014A7FC8F6
:0B00F800120151ED1D70ED1C80EA228A
:10013500120003C2B47FE87E031200E8D2B47FE860
:050145001200E880EE4D
:1001030043E78075E504E4F5E38FE48DE275E646A5
:0901130075E6B9F5E553E77F221A
:10011C0043E78075E505E4F5E38FE475E64675E69F
:09012C00B9F5E553E77FAFE222CB
:100003007F4812011C8F085308DFAD087F48120197
:0100130003E9
:100014007F4812011C8F085308BFAD087F481201A6
:0100240003D8
:0A0025007F4C12011C8F085308FEE7
:0A002F007F4C12011C8F085308FDDE
:10003900C0ACE4F5AC53911CF5AC53921C4392E36C
:10004900D0ACC0ACF5AC5395EB75AC015392EB4316
:100059009214D0AC53B1FC53B2FC43B238C0ACF5E6
:10006900AC75AC02439201D0ACC0AC75AC0153B5D0
:10007900FC75AC035392FC439203D0ACC0AC75AC95
:100089000243B404D0ACC0AC75AC0243B408D0ACE4
:10009900C0AC75AC0243B410D0ACC0AC75AC024373
:1000A900B420D0ACC0AC75AC0243B440D0ACC0AC49
:1000B90075AC0243B480D0ACC0AC75AC0343B40298
:1000C900D0ACC0AC75AC08D0ACC0AC75AC09D0AC88
:0F00D900C0AC75AC07D0ACC0AC75AC0AD0AC22D3
:03000000020159A1
:0C015900787FE4F6D8FD758108020135BE
:00000001FF
